:100000000C9434000C9451000C9451000C94510049
:100010000C9451000C9451000C9451000C9451001C
:100020000C9451000C9451000C9451000C9453000A
:100030000C9451000C9451000C9451000C945100FC
:100040000C9451000C9451000C9451000C945100EC
:100050000C9451000C9451000C9451000C945100DC
:100060000C9479040C94510011241FBECFEFD8E0FA
:10007000DEBFCDBF12E0A0E0B1E0E8E5FFE002C0E6
:1000800005900D92A435B107D9F723E0A4E5B2E0BD
:1000900001C01D92AE31B207E1F70E94DB020C9461
:1000A000AA070C9400001F920F920FB60F92112412
:1000B0002F933F934F935F936F937F938F939F9370
:1000C000AF93BF93EF93FF936091540270915502E9
:1000D00080915602909157022DEC3CEC4CEC5DE384
:1000E0000E945205462F572F682F792F40935402B4
:1000F000509355026093560270935702FF91EF910F
:10010000BF91AF919F918F917F916F915F914F912F
:100110003F912F910F900FBE0F901F90189584B1B3
:10012000836084B98AB180668AB9289A0895ECE719
:10013000F0E0808180648083EAE7F0E0808187607E
:10014000808380818068808380818064808308953B
:10015000E1E8F0E080818860808380818560808331
:1001600087E08093890088E080938800EFE6F0E0E4
:100170008081826080830895EAE7F0E08081806476
:1001800080838CEC91E00197F1F700C00000209192
:10019000780030917900932F80E0BC01622B80E0E1
:1001A00090E00E9453062AE030E741EA5BE30E94B8
:1001B000090725E530E34AED5FE30E94090708954A
:1001C000CF93C62F8334A9F580E091E00E943B05D0
:1001D0008091C00088230CF03CC00CC09081992312
:1001E0004CF08FEF93EB0197F1F700C00000215026
:1001F0003109A1F78091C6008935B1F588E191E018
:100200000E943B058091C0008823C4F40CC080810B
:1002100088234CF08FEF93EB0197F1F700C00000BB
:1002200021503109A1F78091C6008434E9F4C460FB
:100230001BC08FE291E00E943B0516C08FEF93EB4D
:100240000197F1F700C0000027EE33E0E0ECF0E0AA
:10025000DECF8FEF93EB0197F1F700C0000027EEA0
:1002600033E0E0ECF0E0BACF8C2FCF9108951F93EC
:10027000CF93DF93182FC8EED3E00E941105883486
:10028000E1F40E9426050E9411058D34B1F40E940C
:1002900026050E941105833581F40E9426050E94DF
:1002A0001105182F88E391E00E943B05812F0E94E1
:1002B000260588E492E00E943B058FEF93EB0197BF
:1002C000F1F700C000002197C1F6812FDF91CF9197
:1002D0001F910895CF93C82F80917802811110C08B
:1002E00080911D03882321F0C16010921D0308C076
:1002F000CE7F10921D0380E98093BC000E946904A8
:100300008C2FCF9108952F923F924F925F926F92D0
:100310007F928F929F92AF92BF92CF92DF92EF9295
:10032000FF920F931F93CF93DF93CDB7DEB7609704
:100330000FB6F894DEBF0FBECDBF5C016A017B0132
:1003400020E030E0A901C701B6010E94B60588236C
:1003500054F4F7FAF094F7F8F0948DE2F501808305
:100360003324339401C0312CC701B6010E94220608
:100370000E9455069B01AC01C701B6010E945105C0
:100380006E877F87888B292E8E010F5F1F4F4E014E
:10039000FBE08F0E911C0F2EF8E24F2EF02D0F2E4A
:1003A000FBE65F2EF02D0F2EFEE66F2EF02D0F2EAA
:1003B000FEE47F2EF02D242D352D462D572DC7011F
:1003C000B6010E94BA050E942706F80161938F01C9
:1003D000C701B6010E9422066B017C01642D752DB8
:1003E000862D972D0E9422069B01AC01C701B60104
:1003F0000E948E070E945506C62ED72EE82EF92E93
:1004000020E030E040E251E4642D752D862D972DDB
:100410000E94BA05462E572E682E792E081519050A
:1004200051F68981811110C0FE01329691E08191CF
:10043000811104C09F5F9A30D1F723C09A3009F12F
:100440009A3038F5892F02C090E080E0332D391BB7
:10045000232F280FF501E20FF11DA1E0B0E0AC0F52
:10046000BD1FA80FB11D2C91205D20838F5F8A30A6
:1004700079F7832D891B0F2EFAE03F2EF02D380ED1
:1004800008C0F501E30DF11D80E38083FFEFAF1A93
:10049000BF0A832C912CF501E80DF91D8EE28083B3
:1004A00085010F5F1F4F7E018BE0E80EF11CCC240D
:1004B000C394D12CCC0EDD1EEDE0CE0ED11C20E07D
:1004C00030E040E251E4BE85AF85F8896B2F7A2F8A
:1004D0008F2F922D0E940907462E572E682E792EB7
:1004E0000E942706F70161937F0170E080E090E0B1
:1004F0000E9455069B01AC01642D752D862D972D0C
:100500000E9451056E877F87888B292EEC14FD048D
:10051000B1F68D8581112EC08C85811105C08B852A
:10052000882321F02AE027C02BE025C0F801E80D40
:10053000F91D80E3808385010E5F1F4F16C08AE09E
:1005400090E04AE0F801E30DF11DA1E0B0E0AC0F4E
:10055000BD1FA80FB91F8C91805D80834F5F3394BE
:10056000842F90E0821793076CF3F801E30DF11DDF
:10057000108208C02CE030E02F5F3F4F2B30310558
:10058000F4F6F3CF60960FB6F894DEBF0FBECDBF82
:10059000DF91CF911F910F91FF90EF90DF90CF905F
:1005A000BF90AF909F908F907F906F905F904F9093
:1005B0003F902F900895CF93DF93CDB7DEB72C9760
:1005C0000FB6F894DEBF0FBECDBF2FEF3FE388E339
:1005D000215030408040E1F700C000000E94A80098
:1005E0000E948F000E94970087E790E00E94060516
:1005F00078948DE391E00E943B052898712C512C52
:100600000F2EFAE08F2E912CA12CB12CF02D689496
:10061000442442F80F2EFCE26F2EF02D0F2EF9E746
:100620002F2EF2E03F2EF02D0F2EF3E0CF2ED12C07
:10063000E12CF12CF02D172D609154027091550290
:1006400080915602909157020E942206A5019401C2
:100650000E948E07672B682B692B09F025C1299A08
:100660009FEFEFE9F5E09150E040F040E1F700C086
:100670000000299819C120917802222341F02DE32E
:100680002A95F1F700C00197A109B109A1F71092CD
:100690007802ECEBF0E04082409154025091550218
:1006A0006091560270915702CE0101960E9483011B
:1006B0008981882389F0712CE72DF0E0E65AFD4FFF
:1006C00080837394E1E0F0E0EC0FFD1FE70DF11D76
:1006D00080818111F1CF01C0712CE72DF0E0E65A45
:1006E000FD4F6082072D0F5F0E94BC00AB01BC0173
:1006F000CE0101960E9483018981882389F0E02F31
:10070000F0E0E65AFD4F8083802F87190F5FE1E00C
:10071000F0E0EC0FFD1FE80FF11D80818111EFCF9C
:10072000E02FF0E0E65AFD4F6082E02FEF5FF0E04F
:10073000E65AFD4F5082E02FEE5FF0E0E65AFD4FA3
:100740006082E02FED5FF0E0812F805DE65AFD4F83
:100750008083E02FEC5FF0E0E65AFD4F60820B5F94
:10076000E02FF0E0E65AFD4F10820E946904E0ECB1
:10077000F0E0808188235CF480E00E943701582EED
:10078000882331F0612F0E94E000182F01C0512C06
:10079000F10180818133B1F460915402709155026E
:1007A000809156029091570220E030EC48E256E4E6
:1007B0000E94510520E030E0A9010E9405071816AB
:1007C0000CF41460812F86958230B1F48BB1806671
:1007D0008BB9FFEF2FE13FEB82E0F150204030403A
:1007E0008040D9F700C000008BB18F798BB985E3C9
:1007F00092E00E943B051260812F0E946A01182F2F
:100800006091540270915502809156029091570266
:100810000E942206A70196010E948E07672B682B73
:10082000692BC1F580917802811143C00AC02091E3
:100830007802222331F0EDE3EA95F1F700C0019749
:10084000B1F71092780224E0ECEBF0E020838BE427
:1008500092E00E943B05C1010E943B05862D0E944B
:1008600026050E94BC00AB01BC01CE0101960E948E
:100870008301CE0101960E943B05862D0E9426052C
:10088000812F805D0E94260588E492E00E943B054E
:100890000E9469043FEF8FE995E03150804090401D
:1008A000E1F700C00000C8CE80917802811108C035
:1008B000EECEEDE3EA95F1F700C08EEF9FEFB7CFF4
:1008C000FDE3FA95F1F700C08EEF9FEFAFEFBFEFBA
:1008D000D2CE8EEF8093BA00ECEBF0E084E0808320
:1008E0008081816880838081806480831092780217
:1008F00008951F920F920FB60F9211248F939F931A
:10090000EF93FF938091B900803A09F461C068F4D5
:100910008036B1F120F4882309F460C067C08038C4
:10092000C1F1883809F062C059C0883B69F020F4F1
:10093000883A09F05BC006C0803CC9F0883C09F0E9
:1009400055C04CC01092580280915902E82FF0E037
:10095000E65AFD4F90819093BB008F5F80935902C0
:1009600085EC8093BC0081E08093780246C081E0F2
:1009700080931D0395EC9093BC00809378023DC05A
:100980001092580285EC8093BC0081E0809378023D
:1009900034C080915802E82FF0E09091BB00E758F6
:1009A000FD4F908390819F3F11F410925902E82FE0
:1009B000EF5FE0935802F0E0E758FD4F108285ECBE
:1009C0008093BC0081E08093780280931D0315C062
:1009D00085EC8093BC00109278020FC010921D032A
:1009E0001092780280E98093BC0007C085EC809368
:1009F000BC0010921D0310927802FF91EF919F911D
:100A00008F910F900FBE0F901F9018958093C40088
:100A10009093C50086E08093C20088E18093C10076
:100A200008958091C000882324F40DC0815021F4E2
:100A30000AC08FEFE0ECF0E09DE39A95F1F700C07B
:100A4000908199239CF78091C60008959091C000F1
:100A500095FF04C00DC0915021F40AC09FEFE0EC57
:100A6000F0E02DE32A95F1F700C0208125FFF3CFB8
:100A70008093C6000895CF93DF93FC012081222349
:100A800069F0DC011196E0ECF0E0C6ECD0E080818A
:100A900085FFFDCF28832D912111F9CFDF91CF91D3
:100AA00008955058BB27AA270ED075C166D130F0E3
:100AB0006BD120F031F49F3F11F41EF45BC10EF4B2
:100AC000E095E7FB51C1E92F77D180F3BA176207B0
:100AD00073078407950718F071F49EF58FC10EF423
:100AE000E0950B2EBA2FA02D0B01B90190010C013E
:100AF000CA01A0011124FF27591B99F0593F50F456
:100B0000503E68F11A16F040A22F232F342F4427AD
:100B1000585FF3CF469537952795A795F0405395A5
:100B2000C9F77EF41F16BA0B620B730B840BBAF075
:100B30009150A1F0FF0FBB1F661F771F881FC2F7E0
:100B40000EC0BA0F621F731F841F48F487957795F4
:100B50006795B795F7959E3F08F0B3CF9395880FAB
:100B600008F09927EE0F979587950895D9D008F446
:100B700081E008950CD00FC107D140F0FED030F0D5
:100B800021F45F3F19F0F0C0511139C1F3C014D105
:100B900098F39923C9F35523B1F3951B550BBB2744
:100BA000AA2762177307840738F09F5F5F4F220FF1
:100BB000331F441FAA1FA9F333D00E2E3AF0E0E8EA
:100BC00030D091505040E695001CCAF729D0FE2F36
:100BD00027D0660F771F881FBB1F261737074807C8
:100BE000AB07B0E809F0BB0B802DBF01FF2793587E
:100BF0005F4F2AF09E3F510568F0B6C000C15F3FCD
:100C0000ECF3983EDCF3869577956795B795F79565
:100C10009F5FC9F7880F911D9695879597F908955D
:100C2000E1E0660F771F881FBB1F621773078407F9
:100C3000BA0720F0621B730B840BBA0BEE1F88F708
:100C4000E095089504D06894B111D9C00895BCD03E
:100C500088F09F5790F0B92F9927B751A0F0D1F0A5
:100C6000660F771F881F991F1AF0BA95C9F712C02F
:100C7000B13081F0C3D0B1E00895C0C0672F782FA4
:100C80008827B85F39F0B93FCCF38695779567959B
:100C9000B395D9F73EF490958095709561957F4F07
:100CA0008F4F9F4F0895E89409C097FB3EF49095AD
:100CB0008095709561957F4F8F4F9F4F9923A9F035
:100CC000F92F96E9BB279395F695879577956795C4
:100CD000B795F111F8CFFAF4BB0F11F460FF1BC008
:100CE0006F5F7F4F8F4F9F4F16C0882311F096E99B
:100CF00011C0772321F09EE8872F762F05C0662349
:100D000071F096E8862F70E060E02AF09A95660F01
:100D1000771F881FDAF7880F9695879597F90895BA
:100D2000990F0008550FAA0BE0E8FEEF16161706FC
:100D3000E807F907C0F012161306E407F50798F064
:100D4000621B730B840B950B39F40A2661F0232B7D
:100D5000242B252B21F408950A2609F4A140A695F9
:100D60008FEF811D811D089597F99F6780E870E0DE
:100D700060E008959FEF80EC089500240A94161611
:100D8000170618060906089500240A941216130679
:100D9000140605060895092E0394000C11F4882307
:100DA00052F0BB0F40F4BF2B11F460FF04C06F5F23
:100DB0007F4F8F4F9F4F089557FD9058440F551FF9
:100DC00059F05F3F71F04795880F97FB991F61F0CD
:100DD0009F3F79F087950895121613061406551F44
:100DE000F2CF4695F1DF08C0161617061806991FB0
:100DF000F1CF86957105610508940895E894BB27A5
:100E000066277727CB0197F908958ADF08F48FEFDB
:100E100008950BD0C0CFB1DF28F0B6DF18F09523CE
:100E200009F0A2CFA7CF1124EACFC6DFA0F3959F88
:100E3000D1F3950F50E0551F629FF001729FBB27C1
:100E4000F00DB11D639FAA27F00DB11DAA1F649F6D
:100E50006627B00DA11D661F829F2227B00DA11D20
:100E6000621F739FB00DA11D621F839FA00D611DA6
:100E7000221F749F3327A00D611D231F849F600DC7
:100E8000211D822F762F6A2F11249F5750408AF000
:100E9000E1F088234AF0EE0FFF1FBB1F661F771F8C
:100EA000881F91505040A9F79E3F510570F05CCFCC
:100EB000A6CF5F3FECF3983EDCF386957795679578
:100EC000B795F795E7959F5FC1F7FE2B880F911DAA
:100ED0009695879597F90895A1E21A2EAA1BBB1B38
:100EE000FD010DC0AA1FBB1FEE1FFF1FA217B307F6
:100EF000E407F50720F0A21BB30BE40BF50B661F0C
:100F0000771F881F991F1A9469F7609570958095CF
:100F100090959B01AC01BD01CF010895052E97FB73
:100F200016F4009407D057FD0DD00E946C0707FC03
:100F300009D07EF490958095709561957F4F8F4F85
:100F40009F4F089550954095309521953F4F4F4FB5
:080F50005F4F0895F894FFCFF4
:100F580041726520796F7520737572653F285479E1
:100F680070652059290D0A004C617374204368612B
:100F78006E63653F28547970652044290D0A00483E
:100F8800656C6C6F210D0A00434D443A0046616C54
:100F98006C696E672C20417468656E612D54696DAB
:100FA800652C20416363656C58286D67292C2041A6
:100FB8006363656C59286D67292C20416363656CF0
:100FC8005A286D67292C204779726F5828647073E6
:100FD800292C204261726F286D626172292C20458C
:100FE80078744261726F286D626172292C20546D89
:100FF800704F75742843292C20546D70496E28430E
:10100800292C20426174742856292C205554432CCD
:10101800204C61742C204C6F6E672C204669782C0C
:10102800205361742C2048444F502C20416C742C60
:101038002048656164696E672C2053706565642C6F
:101048002043504D2C207553762F48722C20532F57
:10105800462C20417468656E612D537461747573F4
:101068002C204865726D65732D426174566F6C74DF
:101078002856292C204865726D65732D5374617448
:1010880075730A0D00437574206F66662073756367
:101098006365737366756C210D0A00484D532D47BF
:0410A8004E443A0078
:00000001FF
